{
    "contractName": "MarsBaseExchange",
    "abi": [
        {
            "anonymous": false,
            "inputs": [
                {
                    "indexed": false,
                    "internalType": "uint256",
                    "name": "log",
                    "type": "uint256"
                }
            ],
            "name": "Log",
            "type": "event"
        },
        {
            "anonymous": false,
            "inputs": [
                {
                    "indexed": false,
                    "internalType": "uint256",
                    "name": "offerId",
                    "type": "uint256"
                },
                {
                    "indexed": false,
                    "internalType": "address",
                    "name": "sender",
                    "type": "address"
                },
                {
                    "indexed": false,
                    "internalType": "uint256",
                    "name": "blockTimestamp",
                    "type": "uint256"
                }
            ],
            "name": "OfferAccepted",
            "type": "event"
        },
        {
            "anonymous": false,
            "inputs": [
                {
                    "indexed": false,
                    "internalType": "uint256",
                    "name": "offerId",
                    "type": "uint256"
                },
                {
                    "indexed": false,
                    "internalType": "address",
                    "name": "sender",
                    "type": "address"
                },
                {
                    "indexed": false,
                    "internalType": "uint256",
                    "name": "blockTimestamp",
                    "type": "uint256"
                }
            ],
            "name": "OfferCancelled",
            "type": "event"
        },
        {
            "anonymous": false,
            "inputs": [
                {
                    "indexed": false,
                    "internalType": "uint256",
                    "name": "offerId",
                    "type": "uint256"
                },
                {
                    "indexed": false,
                    "internalType": "address",
                    "name": "sender",
                    "type": "address"
                },
                {
                    "indexed": false,
                    "internalType": "uint256",
                    "name": "blockTimestamp",
                    "type": "uint256"
                }
            ],
            "name": "OfferCreated",
            "type": "event"
        },
        {
            "anonymous": false,
            "inputs": [
                {
                    "indexed": false,
                    "internalType": "uint256",
                    "name": "offerId",
                    "type": "uint256"
                },
                {
                    "indexed": false,
                    "internalType": "address",
                    "name": "sender",
                    "type": "address"
                },
                {
                    "indexed": false,
                    "internalType": "uint256",
                    "name": "blockTimestamp",
                    "type": "uint256"
                }
            ],
            "name": "OfferModified",
            "type": "event"
        },
        {
            "anonymous": false,
            "inputs": [
                {
                    "indexed": false,
                    "internalType": "uint256",
                    "name": "offerId",
                    "type": "uint256"
                },
                {
                    "indexed": false,
                    "internalType": "address",
                    "name": "sender",
                    "type": "address"
                },
                {
                    "indexed": false,
                    "internalType": "uint256",
                    "name": "blockTimestamp",
                    "type": "uint256"
                }
            ],
            "name": "OfferPartiallyAccepted",
            "type": "event"
        },
        {
            "anonymous": false,
            "inputs": [
                {
                    "indexed": true,
                    "internalType": "address",
                    "name": "previousOwner",
                    "type": "address"
                },
                {
                    "indexed": true,
                    "internalType": "address",
                    "name": "newOwner",
                    "type": "address"
                }
            ],
            "name": "OwnershipTransferred",
            "type": "event"
        },
        {
            "inputs": [
                {
                    "internalType": "uint256",
                    "name": "",
                    "type": "uint256"
                }
            ],
            "name": "offers",
            "outputs": [
                {
                    "internalType": "bool",
                    "name": "active",
                    "type": "bool"
                },
                {
                    "internalType": "enum MarsBaseExchange.OfferType",
                    "name": "offerType",
                    "type": "uint8"
                },
                {
                    "internalType": "uint256",
                    "name": "offerId",
                    "type": "uint256"
                },
                {
                    "internalType": "uint256",
                    "name": "amountAlice",
                    "type": "uint256"
                },
                {
                    "internalType": "uint256",
                    "name": "feeAlice",
                    "type": "uint256"
                },
                {
                    "internalType": "uint256",
                    "name": "feeBob",
                    "type": "uint256"
                },
                {
                    "internalType": "uint256",
                    "name": "smallestChunkSize",
                    "type": "uint256"
                },
                {
                    "internalType": "uint256",
                    "name": "minimumSize",
                    "type": "uint256"
                },
                {
                    "internalType": "uint256",
                    "name": "deadline",
                    "type": "uint256"
                },
                {
                    "internalType": "uint256",
                    "name": "amountRemaining",
                    "type": "uint256"
                },
                {
                    "internalType": "address",
                    "name": "offerer",
                    "type": "address"
                },
                {
                    "internalType": "address",
                    "name": "payoutAddress",
                    "type": "address"
                },
                {
                    "internalType": "address",
                    "name": "tokenAlice",
                    "type": "address"
                }
            ],
            "stateMutability": "view",
            "type": "function",
            "constant": true
        },
        {
            "inputs": [],
            "name": "owner",
            "outputs": [
                {
                    "internalType": "address",
                    "name": "",
                    "type": "address"
                }
            ],
            "stateMutability": "view",
            "type": "function",
            "constant": true
        },
        {
            "inputs": [],
            "name": "renounceOwnership",
            "outputs": [],
            "stateMutability": "nonpayable",
            "type": "function"
        },
        {
            "inputs": [
                {
                    "internalType": "address",
                    "name": "newOwner",
                    "type": "address"
                }
            ],
            "name": "transferOwnership",
            "outputs": [],
            "stateMutability": "nonpayable",
            "type": "function"
        },
        {
            "inputs": [],
            "name": "setCurrentTime",
            "outputs": [],
            "stateMutability": "nonpayable",
            "type": "function"
        },
        {
            "inputs": [
                {
                    "internalType": "uint256",
                    "name": "_minimumFee",
                    "type": "uint256"
                }
            ],
            "name": "setMinimumFee",
            "outputs": [],
            "stateMutability": "nonpayable",
            "type": "function"
        },
        {
            "inputs": [
                {
                    "internalType": "uint256",
                    "name": "offerId",
                    "type": "uint256"
                }
            ],
            "name": "getOffer",
            "outputs": [
                {
                    "components": [
                        {
                            "internalType": "bool",
                            "name": "active",
                            "type": "bool"
                        },
                        {
                            "internalType": "enum MarsBaseExchange.OfferType",
                            "name": "offerType",
                            "type": "uint8"
                        },
                        {
                            "internalType": "uint256",
                            "name": "offerId",
                            "type": "uint256"
                        },
                        {
                            "internalType": "uint256",
                            "name": "amountAlice",
                            "type": "uint256"
                        },
                        {
                            "internalType": "uint256",
                            "name": "feeAlice",
                            "type": "uint256"
                        },
                        {
                            "internalType": "uint256",
                            "name": "feeBob",
                            "type": "uint256"
                        },
                        {
                            "internalType": "uint256",
                            "name": "smallestChunkSize",
                            "type": "uint256"
                        },
                        {
                            "internalType": "uint256",
                            "name": "minimumSize",
                            "type": "uint256"
                        },
                        {
                            "internalType": "uint256",
                            "name": "deadline",
                            "type": "uint256"
                        },
                        {
                            "internalType": "uint256",
                            "name": "amountRemaining",
                            "type": "uint256"
                        },
                        {
                            "internalType": "address",
                            "name": "offerer",
                            "type": "address"
                        },
                        {
                            "internalType": "address",
                            "name": "payoutAddress",
                            "type": "address"
                        },
                        {
                            "internalType": "address",
                            "name": "tokenAlice",
                            "type": "address"
                        },
                        {
                            "internalType": "bool[]",
                            "name": "capabilities",
                            "type": "bool[]"
                        },
                        {
                            "internalType": "uint256[]",
                            "name": "amountBob",
                            "type": "uint256[]"
                        },
                        {
                            "internalType": "uint256[]",
                            "name": "minimumOrderAmountsAlice",
                            "type": "uint256[]"
                        },
                        {
                            "internalType": "uint256[]",
                            "name": "minimumOrderAmountsBob",
                            "type": "uint256[]"
                        },
                        {
                            "internalType": "address[]",
                            "name": "minimumOrderAddresses",
                            "type": "address[]"
                        },
                        {
                            "internalType": "address[]",
                            "name": "minimumOrderTokens",
                            "type": "address[]"
                        },
                        {
                            "internalType": "address[]",
                            "name": "tokenBob",
                            "type": "address[]"
                        }
                    ],
                    "internalType": "struct MarsBaseExchange.MBOffer",
                    "name": "",
                    "type": "tuple"
                }
            ],
            "stateMutability": "view",
            "type": "function",
            "constant": true
        },
        {
            "inputs": [],
            "name": "getAllOffers",
            "outputs": [
                {
                    "components": [
                        {
                            "internalType": "bool",
                            "name": "active",
                            "type": "bool"
                        },
                        {
                            "internalType": "enum MarsBaseExchange.OfferType",
                            "name": "offerType",
                            "type": "uint8"
                        },
                        {
                            "internalType": "uint256",
                            "name": "offerId",
                            "type": "uint256"
                        },
                        {
                            "internalType": "uint256",
                            "name": "amountAlice",
                            "type": "uint256"
                        },
                        {
                            "internalType": "uint256",
                            "name": "feeAlice",
                            "type": "uint256"
                        },
                        {
                            "internalType": "uint256",
                            "name": "feeBob",
                            "type": "uint256"
                        },
                        {
                            "internalType": "uint256",
                            "name": "smallestChunkSize",
                            "type": "uint256"
                        },
                        {
                            "internalType": "uint256",
                            "name": "minimumSize",
                            "type": "uint256"
                        },
                        {
                            "internalType": "uint256",
                            "name": "deadline",
                            "type": "uint256"
                        },
                        {
                            "internalType": "uint256",
                            "name": "amountRemaining",
                            "type": "uint256"
                        },
                        {
                            "internalType": "address",
                            "name": "offerer",
                            "type": "address"
                        },
                        {
                            "internalType": "address",
                            "name": "payoutAddress",
                            "type": "address"
                        },
                        {
                            "internalType": "address",
                            "name": "tokenAlice",
                            "type": "address"
                        },
                        {
                            "internalType": "bool[]",
                            "name": "capabilities",
                            "type": "bool[]"
                        },
                        {
                            "internalType": "uint256[]",
                            "name": "amountBob",
                            "type": "uint256[]"
                        },
                        {
                            "internalType": "uint256[]",
                            "name": "minimumOrderAmountsAlice",
                            "type": "uint256[]"
                        },
                        {
                            "internalType": "uint256[]",
                            "name": "minimumOrderAmountsBob",
                            "type": "uint256[]"
                        },
                        {
                            "internalType": "address[]",
                            "name": "minimumOrderAddresses",
                            "type": "address[]"
                        },
                        {
                            "internalType": "address[]",
                            "name": "minimumOrderTokens",
                            "type": "address[]"
                        },
                        {
                            "internalType": "address[]",
                            "name": "tokenBob",
                            "type": "address[]"
                        }
                    ],
                    "internalType": "struct MarsBaseExchange.MBOffer[]",
                    "name": "",
                    "type": "tuple[]"
                }
            ],
            "stateMutability": "view",
            "type": "function",
            "constant": true
        },
        {
            "inputs": [
                {
                    "internalType": "address",
                    "name": "offerer",
                    "type": "address"
                }
            ],
            "name": "getOpenOffersForAddress",
            "outputs": [
                {
                    "components": [
                        {
                            "internalType": "bool",
                            "name": "active",
                            "type": "bool"
                        },
                        {
                            "internalType": "enum MarsBaseExchange.OfferType",
                            "name": "offerType",
                            "type": "uint8"
                        },
                        {
                            "internalType": "uint256",
                            "name": "offerId",
                            "type": "uint256"
                        },
                        {
                            "internalType": "uint256",
                            "name": "amountAlice",
                            "type": "uint256"
                        },
                        {
                            "internalType": "uint256",
                            "name": "feeAlice",
                            "type": "uint256"
                        },
                        {
                            "internalType": "uint256",
                            "name": "feeBob",
                            "type": "uint256"
                        },
                        {
                            "internalType": "uint256",
                            "name": "smallestChunkSize",
                            "type": "uint256"
                        },
                        {
                            "internalType": "uint256",
                            "name": "minimumSize",
                            "type": "uint256"
                        },
                        {
                            "internalType": "uint256",
                            "name": "deadline",
                            "type": "uint256"
                        },
                        {
                            "internalType": "uint256",
                            "name": "amountRemaining",
                            "type": "uint256"
                        },
                        {
                            "internalType": "address",
                            "name": "offerer",
                            "type": "address"
                        },
                        {
                            "internalType": "address",
                            "name": "payoutAddress",
                            "type": "address"
                        },
                        {
                            "internalType": "address",
                            "name": "tokenAlice",
                            "type": "address"
                        },
                        {
                            "internalType": "bool[]",
                            "name": "capabilities",
                            "type": "bool[]"
                        },
                        {
                            "internalType": "uint256[]",
                            "name": "amountBob",
                            "type": "uint256[]"
                        },
                        {
                            "internalType": "uint256[]",
                            "name": "minimumOrderAmountsAlice",
                            "type": "uint256[]"
                        },
                        {
                            "internalType": "uint256[]",
                            "name": "minimumOrderAmountsBob",
                            "type": "uint256[]"
                        },
                        {
                            "internalType": "address[]",
                            "name": "minimumOrderAddresses",
                            "type": "address[]"
                        },
                        {
                            "internalType": "address[]",
                            "name": "minimumOrderTokens",
                            "type": "address[]"
                        },
                        {
                            "internalType": "address[]",
                            "name": "tokenBob",
                            "type": "address[]"
                        }
                    ],
                    "internalType": "struct MarsBaseExchange.MBOffer[]",
                    "name": "",
                    "type": "tuple[]"
                }
            ],
            "stateMutability": "view",
            "type": "function",
            "constant": true
        },
        {
            "inputs": [
                {
                    "internalType": "uint256",
                    "name": "amountAlice",
                    "type": "uint256"
                },
                {
                    "internalType": "uint256",
                    "name": "offerAmountAlice",
                    "type": "uint256"
                },
                {
                    "internalType": "uint256",
                    "name": "offerAmountBob",
                    "type": "uint256"
                }
            ],
            "name": "price",
            "outputs": [
                {
                    "internalType": "uint256",
                    "name": "",
                    "type": "uint256"
                }
            ],
            "stateMutability": "pure",
            "type": "function",
            "constant": true
        },
        {
            "inputs": [
                {
                    "internalType": "address",
                    "name": "tokenAlice",
                    "type": "address"
                },
                {
                    "internalType": "address[]",
                    "name": "tokenBob",
                    "type": "address[]"
                },
                {
                    "internalType": "uint256",
                    "name": "amountAlice",
                    "type": "uint256"
                },
                {
                    "internalType": "uint256[]",
                    "name": "amountBob",
                    "type": "uint256[]"
                },
                {
                    "internalType": "uint256[]",
                    "name": "fees",
                    "type": "uint256[]"
                },
                {
                    "internalType": "uint256[]",
                    "name": "offerParameters",
                    "type": "uint256[]"
                }
            ],
            "name": "createOffer",
            "outputs": [
                {
                    "internalType": "uint256",
                    "name": "",
                    "type": "uint256"
                }
            ],
            "stateMutability": "nonpayable",
            "type": "function"
        },
        {
            "inputs": [
                {
                    "internalType": "uint256",
                    "name": "offerId",
                    "type": "uint256"
                }
            ],
            "name": "cancelOffer",
            "outputs": [
                {
                    "internalType": "uint256",
                    "name": "",
                    "type": "uint256"
                }
            ],
            "stateMutability": "nonpayable",
            "type": "function"
        },
        {
            "inputs": [
                {
                    "internalType": "uint256",
                    "name": "offerId",
                    "type": "uint256"
                },
                {
                    "internalType": "address[]",
                    "name": "tokenBob",
                    "type": "address[]"
                },
                {
                    "internalType": "uint256[]",
                    "name": "amountBob",
                    "type": "uint256[]"
                }
            ],
            "name": "changeOfferPrice",
            "outputs": [
                {
                    "internalType": "uint256",
                    "name": "",
                    "type": "uint256"
                }
            ],
            "stateMutability": "nonpayable",
            "type": "function"
        },
        {
            "inputs": [
                {
                    "internalType": "uint256",
                    "name": "offerId",
                    "type": "uint256"
                },
                {
                    "internalType": "address[]",
                    "name": "tokenBob",
                    "type": "address[]"
                },
                {
                    "internalType": "uint256[]",
                    "name": "amountBob",
                    "type": "uint256[]"
                },
                {
                    "internalType": "uint256",
                    "name": "smallestChunkSize",
                    "type": "uint256"
                }
            ],
            "name": "changeOfferPricePart",
            "outputs": [
                {
                    "internalType": "uint256",
                    "name": "",
                    "type": "uint256"
                }
            ],
            "stateMutability": "nonpayable",
            "type": "function"
        },
        {
            "inputs": [
                {
                    "internalType": "uint256",
                    "name": "offerId",
                    "type": "uint256"
                },
                {
                    "internalType": "address",
                    "name": "tokenBob",
                    "type": "address"
                },
                {
                    "internalType": "uint256",
                    "name": "amountBob",
                    "type": "uint256"
                }
            ],
            "name": "acceptOffer",
            "outputs": [
                {
                    "internalType": "uint256",
                    "name": "",
                    "type": "uint256"
                }
            ],
            "stateMutability": "nonpayable",
            "type": "function"
        },
        {
            "inputs": [
                {
                    "internalType": "uint256",
                    "name": "offerId",
                    "type": "uint256"
                },
                {
                    "internalType": "address",
                    "name": "tokenBob",
                    "type": "address"
                },
                {
                    "internalType": "uint256",
                    "name": "amountBob",
                    "type": "uint256"
                }
            ],
            "name": "acceptOfferPart",
            "outputs": [
                {
                    "internalType": "uint256",
                    "name": "",
                    "type": "uint256"
                }
            ],
            "stateMutability": "nonpayable",
            "type": "function"
        },
        {
            "inputs": [
                {
                    "internalType": "uint256",
                    "name": "offerId",
                    "type": "uint256"
                },
                {
                    "internalType": "address",
                    "name": "tokenBob",
                    "type": "address"
                },
                {
                    "internalType": "uint256",
                    "name": "amountBob",
                    "type": "uint256"
                }
            ],
            "name": "acceptOfferPartWithMinimum",
            "outputs": [
                {
                    "internalType": "uint256",
                    "name": "",
                    "type": "uint256"
                }
            ],
            "stateMutability": "nonpayable",
            "type": "function"
        }
    ],
    "bytecode": "0x6080604052600a6002553480156200001657600080fd5b50620000223362000028565b62000078565b600080546001600160a01b038381166001600160a01b0319831681178455604051919092169283917f8be0079c531659141344cd1fd0a4f28419497f9722a3daafe3b4186f6b6457e09190a35050565b615cb780620000886000396000f3fe608060405234801561001057600080fd5b50600436106100db5760003560e01c8063182a7506146100e05780632071a9f4146100f55780634579268a1461011b57806347ad04c11461013b57806357e68a091461015b57806370d53fd51461016e578063715018a6146101815780638a72ea6a146101895780638da5cb5b1461021f5780639589d7b91461023f578063a165527814610252578063b87ae47d1461025a578063d05e67b41461026d578063d3eefa3814610275578063ef706adf14610288578063ef77c2001461029b578063f2fde38b146102ae575b600080fd5b6100f36100ee36600461548e565b6102c1565b005b6101086101033660046154a7565b61030b565b6040519081526020015b60405180910390f35b61012e61012936600461548e565b610332565b6040516101129190615739565b61014e61014936600461576f565b6106c7565b604051610112919061578a565b610108610169366004615837565b610b40565b61010861017c3660046158b8565b611234565b6100f36115cb565b61020661019736600461548e565b600360208190526000918252604090912080546001820154600283015493830154600484015460058501546006860154600787015460088801546009890154600a8a0154600b909a015460ff808b169c610100909b04169a9899986001600160a01b039283169290811691168d565b6040516101129d9c9b9a99989796959493929190615998565b610227611606565b6040516001600160a01b039091168152602001610112565b61010861024d366004615a13565b611615565b61014e611ddf565b610108610268366004615a13565b61222f565b6100f3612aea565b610108610283366004615a13565b612b4d565b61010861029636600461548e565b6136e1565b6101086102a9366004615a48565b613f0f565b6100f36102bc36600461576f565b614643565b336102ca611606565b6001600160a01b0316146102f95760405162461bcd60e51b81526004016102f090615ac1565b60405180910390fd5b6000811161030657600080fd5b600255565b6000806103188386615b0c565b90508360006103278284615b2b565b979650505050505050565b61033a615250565b60008281526003602090815260409182902082516102808101909352805460ff80821615158552919284019161010090910416600681111561037e5761037e6154d3565b600681111561038f5761038f6154d3565b8152600182015460208083019190915260028301546040808401919091526003840154606084015260048401546080840152600584015460a0840152600684015460c0840152600784015460e0840152600884015461010084015260098401546001600160a01b03908116610120850152600a8501548116610140850152600b85015416610160840152600c8401805482518185028101850190935280835261018090940193919290919083018282801561048957602002820191906000526020600020906000905b825461010083900a900460ff1615158152602060019283018181049485019490930390920291018084116104585790505b50505050508152602001600d82018054806020026020016040519081016040528092919081815260200182805480156104e157602002820191906000526020600020905b8154815260200190600101908083116104cd575b50505050508152602001600e820180548060200260200160405190810160405280929190818152602001828054801561053957602002820191906000526020600020905b815481526020019060010190808311610525575b50505050508152602001600f820180548060200260200160405190810160405280929190818152602001828054801561059157602002820191906000526020600020905b81548152602001906001019080831161057d575b50505050508152602001601082018054806020026020016040519081016040528092919081815260200182805480156105f357602002820191906000526020600020905b81546001600160a01b031681526001909101906020018083116105d5575b505050505081526020016011820180548060200260200160405190810160405280929190818152602001828054801561065557602002820191906000526020600020905b81546001600160a01b03168152600190910190602001808311610637575b50505050508152602001601282018054806020026020016040519081016040528092919081815260200182805480156106b757602002820191906000526020600020905b81546001600160a01b03168152600190910190602001808311610699575b5050505050815250509050919050565b606060006001546001600160401b038111156106e5576106e5615b4d565b60405190808252806020026020018201604052801561071e57816020015b61070b615250565b8152602001906001900390816107035790505b5090506000805b600154811015610b375760008181526003602052604090205460ff161515600114801561076e57506000818152600360205260409020600901546001600160a01b038681169116145b15610b255760008181526003602090815260409182902082516102808101909352805460ff8082161515855291928401916101009091041660068111156107b7576107b76154d3565b60068111156107c8576107c86154d3565b8152600182015460208083019190915260028301546040808401919091526003840154606084015260048401546080840152600584015460a0840152600684015460c0840152600784015460e0840152600884015461010084015260098401546001600160a01b03908116610120850152600a8501548116610140850152600b85015416610160840152600c840180548251818502810185019093528083526101809094019391929091908301828280156108c257602002820191906000526020600020906000905b825461010083900a900460ff1615158152602060019283018181049485019490930390920291018084116108915790505b50505050508152602001600d820180548060200260200160405190810160405280929190818152602001828054801561091a57602002820191906000526020600020905b815481526020019060010190808311610906575b50505050508152602001600e820180548060200260200160405190810160405280929190818152602001828054801561097257602002820191906000526020600020905b81548152602001906001019080831161095e575b50505050508152602001600f82018054806020026020016040519081016040528092919081815260200182805480156109ca57602002820191906000526020600020905b8154815260200190600101908083116109b6575b5050505050815260200160108201805480602002602001604051908101604052809291908181526020018280548015610a2c57602002820191906000526020600020905b81546001600160a01b03168152600190910190602001808311610a0e575b5050505050815260200160118201805480602002602001604051908101604052809291908181526020018280548015610a8e57602002820191906000526020600020905b81546001600160a01b03168152600190910190602001808311610a70575b5050505050815260200160128201805480602002602001604051908101604052809291908181526020018280548015610af057602002820191906000526020600020905b81546001600160a01b03168152600190910190602001808311610ad2575b505050505081525050838381518110610b0b57610b0b615b63565b60200260200101819052508180610b2190615b79565b9250505b80610b2f81615b79565b915050610725565b50909392505050565b6000848314610b4e57600080fd5b60005b85811015610bcd576000878783818110610b6d57610b6d615b63565b9050602002016020810190610b82919061576f565b6001600160a01b03161415610b9657600080fd5b6000858583818110610baa57610baa615b63565b9050602002013511610bbb57600080fd5b80610bc581615b79565b915050610b51565b50600154871115610bdd57600080fd5b600087815260036020908152604080832081516102808101909252805460ff808216151584529293919291840191610100909104166006811115610c2357610c236154d3565b6006811115610c3457610c346154d3565b8152600182015460208083019190915260028301546040808401919091526003840154606084015260048401546080840152600584015460a0840152600684015460c0840152600784015460e0840152600884015461010084015260098401546001600160a01b03908116610120850152600a8501548116610140850152600b85015416610160840152600c84018054825181850281018501909352808352610180909401939192909190830182828015610d2e57602002820191906000526020600020906000905b825461010083900a900460ff161515815260206001928301818104948501949093039092029101808411610cfd5790505b50505050508152602001600d8201805480602002602001604051908101604052809291908181526020018280548015610d8657602002820191906000526020600020905b815481526020019060010190808311610d72575b50505050508152602001600e8201805480602002602001604051908101604052809291908181526020018280548015610dde57602002820191906000526020600020905b815481526020019060010190808311610dca575b50505050508152602001600f8201805480602002602001604051908101604052809291908181526020018280548015610e3657602002820191906000526020600020905b815481526020019060010190808311610e22575b5050505050815260200160108201805480602002602001604051908101604052809291908181526020018280548015610e9857602002820191906000526020600020905b81546001600160a01b03168152600190910190602001808311610e7a575b5050505050815260200160118201805480602002602001604051908101604052809291908181526020018280548015610efa57602002820191906000526020600020905b81546001600160a01b03168152600190910190602001808311610edc575b5050505050815260200160128201805480602002602001604051908101604052809291908181526020018280548015610f5c57602002820191906000526020600020905b81546001600160a01b03168152600190910190602001808311610f3e575b5050505050815250509050806101a00151600081518110610f7f57610f7f615b63565b602002602001015115156001151514610f9757600080fd5b6101408101516001600160a01b03163314610fb157600080fd5b8060600151831115610fc257600080fd5b8686808060200260200160405190810160405280939291908181526020018383602002808284376000920191909152505050506102608201526040805160208087028281018201909352868252909187918791829185019084908082843760009201829052506101c086019490945250505060c082018490528881526003602090815260409091208251815490151560ff198216811783559284015184939091839161ff00191661ffff1990911617610100836006811115611086576110866154d3565b021790555060408201516001820155606082015160028201556080820151600382015560a0820151600482015560c0820151600582015560e08201516006820155610100820151600782015561012082015160088201556101408201516009820180546001600160a01b039283166001600160a01b031991821617909155610160840151600a84018054918416918316919091179055610180840151600b840180549190931691161790556101a0820151805161114d91600c840191602090910190615305565b506101c0820151805161116a91600d8401916020909101906153aa565b506101e0820151805161118791600e8401916020909101906153aa565b5061020082015180516111a491600f8401916020909101906153aa565b5061022082015180516111c19160108401916020909101906153e5565b5061024082015180516111de9160118401916020909101906153e5565b5061026082015180516111fb9160128401916020909101906153e5565b50905050600080516020615c6283398151915288334260405161122093929190615b94565b60405180910390a150959695505050505050565b6000808585600081811061124a5761124a615b63565b90506020020135905060008686600181811061126857611268615b63565b60200291909101359150506001600160a01b038d1661128657600080fd5b60005b8b8110156112e05760008d8d838181106112a5576112a5615b63565b90506020020160208101906112ba919061576f565b6001600160a01b031614156112ce57600080fd5b806112d881615b79565b915050611289565b506002546112ee8284615bb3565b10156112f957600080fd5b600061130b8e8e8e8e8e8e8e8e6146e0565b9050611318818787614855565b60015460008181526003602090815260409091208351815490151560ff19821681178355928501519495509293859391929091839161ff00191661ffff199091161761010083600681111561136f5761136f6154d3565b021790555060408201516001820155606082015160028201556080820151600382015560a0820151600482015560c0820151600582015560e08201516006820155610100820151600782015561012082015160088201556101408201516009820180546001600160a01b039283166001600160a01b031991821617909155610160840151600a84018054918416918316919091179055610180840151600b840180549190931691161790556101a0820151805161143691600c840191602090910190615305565b506101c0820151805161145391600d8401916020909101906153aa565b506101e0820151805161147091600e8401916020909101906153aa565b50610200820151805161148d91600f8401916020909101906153aa565b5061022082015180516114aa9160108401916020909101906153e5565b5061024082015180516114c79160118401916020909101906153e5565b5061026082015180516114e49160128401916020909101906153e5565b509050508161018001516001600160a01b03166323b872dd33308f6040518463ffffffff1660e01b815260040161151d93929190615bcb565b6020604051808303816000875af115801561153c573d6000803e3d6000fd5b505050506040513d601f19601f820116820180604052508101906115609190615bef565b61156957600080fd5b6001805490600061157983615b79565b91905055507fb61c892d3af89c520a4214d8f8dc61896cdb6fd28991a0a836288fe73028a18c8133426040516115b193929190615b94565b60405180910390a19e9d5050505050505050505050505050565b336115d4611606565b6001600160a01b0316146115fa5760405162461bcd60e51b81526004016102f090615ac1565b6116046000614a2b565b565b6000546001600160a01b031690565b600083815260036020908152604080832081516102808101909252805460ff8082161515845285948401916101009004166006811115611657576116576154d3565b6006811115611668576116686154d3565b8152600182015460208083019190915260028301546040808401919091526003840154606084015260048401546080840152600584015460a0840152600684015460c0840152600784015460e0840152600884015461010084015260098401546001600160a01b03908116610120850152600a8501548116610140850152600b85015416610160840152600c8401805482518185028101850190935280835261018090940193919290919083018282801561176257602002820191906000526020600020906000905b825461010083900a900460ff1615158152602060019283018181049485019490930390920291018084116117315790505b50505050508152602001600d82018054806020026020016040519081016040528092919081815260200182805480156117ba57602002820191906000526020600020905b8154815260200190600101908083116117a6575b50505050508152602001600e820180548060200260200160405190810160405280929190818152602001828054801561181257602002820191906000526020600020905b8154815260200190600101908083116117fe575b50505050508152602001600f820180548060200260200160405190810160405280929190818152602001828054801561186a57602002820191906000526020600020905b815481526020019060010190808311611856575b50505050508152602001601082018054806020026020016040519081016040528092919081815260200182805480156118cc57602002820191906000526020600020905b81546001600160a01b031681526001909101906020018083116118ae575b505050505081526020016011820180548060200260200160405190810160405280929190818152602001828054801561192e57602002820191906000526020600020905b81546001600160a01b03168152600190910190602001808311611910575b505050505081526020016012820180548060200260200160405190810160405280929190818152602001828054801561199057602002820191906000526020600020905b81546001600160a01b03168152600190910190602001808311611972575b505050919092525091925050506001600160a01b0384166119b057600080fd5b805115156001146119c057600080fd5b6101008101514210806119d65750610100810151155b6119df57600080fd5b60008060005b83610260015151811015611aa957866001600160a01b03168461026001518281518110611a1457611a14615b63565b60200260200101516001600160a01b0316148015611a4f575085846101c001518281518110611a4557611a45615b63565b6020026020010151145b15611a97578361026001518181518110611a6b57611a6b615b63565b60200260200101519250836101c001518181518110611a8c57611a8c615b63565b602002602001015191505b80611aa181615b79565b9150506119e5565b50856001600160a01b0316826001600160a01b031614611ac857600080fd5b848114611ad457600080fd5b60006103e884608001516103e8611aeb9190615c11565b856101200151611afb9190615b0c565b611b059190615b2b565b905060006103e88560a001516103e8611b1e9190615c11565b611b289085615b0c565b611b329190615b2b565b90506000611b408285615c11565b905060008111611b4f57600080fd5b6101608601516040516323b872dd60e01b81526001600160a01b038716916323b872dd91611b839133918790600401615bcb565b6020604051808303816000875af1158015611ba2573d6000803e3d6000fd5b505050506040513d601f19601f82011682018060405250810190611bc69190615bef565b611bcf57600080fd5b8561018001516001600160a01b031663a9059cbb33856040518363ffffffff1660e01b8152600401611c02929190615c28565b6020604051808303816000875af1158015611c21573d6000803e3d6000fd5b505050506040513d601f19601f82011682018060405250810190611c459190615bef565b611c4e57600080fd5b6040516323b872dd60e01b81526001600160a01b038616906323b872dd90611c7e90339030908690600401615bcb565b6020604051808303816000875af1158015611c9d573d6000803e3d6000fd5b505050506040513d601f19601f82011682018060405250810190611cc19190615bef565b611cca57600080fd5b60008a81526003602081905260408220805461ffff19168155600181018390556002810183905590810182905560048101829055600581018290556006810182905560078101829055600881018290556009810180546001600160a01b0319908116909155600a8201805482169055600b82018054909116905590611d52600c83018261543a565b611d60600d8301600061545f565b611d6e600e8301600061545f565b611d7c600f8301600061545f565b611d8a60108301600061545f565b611d9860118301600061545f565b611da660128301600061545f565b5050600080516020615c428339815191528a3342604051611dc993929190615b94565b60405180910390a1509798975050505050505050565b606060006001546001600160401b03811115611dfd57611dfd615b4d565b604051908082528060200260200182016040528015611e3657816020015b611e23615250565b815260200190600190039081611e1b5790505b5090506000805b6001548110156122275760008181526003602052604090205460ff161515600114156122155760008181526003602090815260409182902082516102808101909352805460ff808216151585529192840191610100909104166006811115611ea757611ea76154d3565b6006811115611eb857611eb86154d3565b8152600182015460208083019190915260028301546040808401919091526003840154606084015260048401546080840152600584015460a0840152600684015460c0840152600784015460e0840152600884015461010084015260098401546001600160a01b03908116610120850152600a8501548116610140850152600b85015416610160840152600c84018054825181850281018501909352808352610180909401939192909190830182828015611fb257602002820191906000526020600020906000905b825461010083900a900460ff161515815260206001928301818104948501949093039092029101808411611f815790505b50505050508152602001600d820180548060200260200160405190810160405280929190818152602001828054801561200a57602002820191906000526020600020905b815481526020019060010190808311611ff6575b50505050508152602001600e820180548060200260200160405190810160405280929190818152602001828054801561206257602002820191906000526020600020905b81548152602001906001019080831161204e575b50505050508152602001600f82018054806020026020016040519081016040528092919081815260200182805480156120ba57602002820191906000526020600020905b8154815260200190600101908083116120a6575b505050505081526020016010820180548060200260200160405190810160405280929190818152602001828054801561211c57602002820191906000526020600020905b81546001600160a01b031681526001909101906020018083116120fe575b505050505081526020016011820180548060200260200160405190810160405280929190818152602001828054801561217e57602002820191906000526020600020905b81546001600160a01b03168152600190910190602001808311612160575b50505050508152602001601282018054806020026020016040519081016040528092919081815260200182805480156121e057602002820191906000526020600020905b81546001600160a01b031681526001909101906020018083116121c2575b5050505050815250508383815181106121fb576121fb615b63565b6020026020010181905250818061221190615b79565b9250505b8061221f81615b79565b915050611e3d565b509092915050565b600083815260036020908152604080832081516102808101909252805460ff8082161515845285948401916101009004166006811115612271576122716154d3565b6006811115612282576122826154d3565b8152600182015460208083019190915260028301546040808401919091526003840154606084015260048401546080840152600584015460a0840152600684015460c0840152600784015460e0840152600884015461010084015260098401546001600160a01b03908116610120850152600a8501548116610140850152600b85015416610160840152600c8401805482518185028101850190935280835261018090940193919290919083018282801561237c57602002820191906000526020600020906000905b825461010083900a900460ff16151581526020600192830181810494850194909303909202910180841161234b5790505b50505050508152602001600d82018054806020026020016040519081016040528092919081815260200182805480156123d457602002820191906000526020600020905b8154815260200190600101908083116123c0575b50505050508152602001600e820180548060200260200160405190810160405280929190818152602001828054801561242c57602002820191906000526020600020905b815481526020019060010190808311612418575b50505050508152602001600f820180548060200260200160405190810160405280929190818152602001828054801561248457602002820191906000526020600020905b815481526020019060010190808311612470575b50505050508152602001601082018054806020026020016040519081016040528092919081815260200182805480156124e657602002820191906000526020600020905b81546001600160a01b031681526001909101906020018083116124c8575b505050505081526020016011820180548060200260200160405190810160405280929190818152602001828054801561254857602002820191906000526020600020905b81546001600160a01b0316815260019091019060200180831161252a575b50505050508152602001601282018054806020026020016040519081016040528092919081815260200182805480156125aa57602002820191906000526020600020905b81546001600160a01b0316815260019091019060200180831161258c575b505050919092525091925050506001600160a01b0384166125ca57600080fd5b805115156001146125da57600080fd5b6101008101514210806125f05750610100810151155b6125f957600080fd5b600281602001516006811115612611576126116154d3565b14806126325750600581602001516006811115612630576126306154d3565b145b806126525750600681602001516006811115612650576126506154d3565b145b806126725750600381602001516006811115612670576126706154d3565b145b61267b57600080fd5b60008060005b8361026001515181101561271c57866001600160a01b031684610260015182815181106126b0576126b0615b63565b60200260200101516001600160a01b0316141561270a5783610260015181815181106126de576126de615b63565b60200260200101519250836101c0015181815181106126ff576126ff615b63565b602002602001015191505b8061271481615b79565b915050612681565b50600061272e8683866060015161030b565b905060006127418286606001518561030b565b905060006103e886608001516103e861275a9190615c11565b6127649085615b0c565b61276e9190615b2b565b905060006103e88760a001516103e86127879190615c11565b6127919085615b0c565b61279b9190615b2b565b905060006127a98285615c11565b9050600081116127b857600080fd5b8760c001518310156127c957600080fd5b8761012001518311156127db57600080fd5b6101608801516040516323b872dd60e01b81526001600160a01b038916916323b872dd9161280f9133918790600401615bcb565b6020604051808303816000875af115801561282e573d6000803e3d6000fd5b505050506040513d601f19601f820116820180604052508101906128529190615bef565b61285b57600080fd5b6040516323b872dd60e01b81526001600160a01b038816906323b872dd9061288b90339030908690600401615bcb565b6020604051808303816000875af11580156128aa573d6000803e3d6000fd5b505050506040513d601f19601f820116820180604052508101906128ce9190615bef565b6128d757600080fd5b8761018001516001600160a01b031663a9059cbb33856040518363ffffffff1660e01b815260040161290a929190615c28565b6020604051808303816000875af1158015612929573d6000803e3d6000fd5b505050506040513d601f19601f8201168201806040525081019061294d9190615bef565b61295657600080fd5b60008c81526003602052604081206008018054879290612977908490615c11565b909155505060008c815260036020526040902060080154612a9e5760008c81526003602081905260408220805461ffff19168155600181018390556002810183905590810182905560048101829055600581018290556006810182905560078101829055600881018290556009810180546001600160a01b0319908116909155600a8201805482169055600b82018054909116905590612a1a600c83018261543a565b612a28600d8301600061545f565b612a36600e8301600061545f565b612a44600f8301600061545f565b612a5260108301600061545f565b612a6060118301600061545f565b612a6e60128301600061545f565b5050600080516020615c428339815191528c3342604051612a9193929190615b94565b60405180910390a1612ada565b7f57f6253d65fab6595a4fa8c64afe2a5d7d887149f9b606e5b8921121e925017e8c3342604051612ad193929190615b94565b60405180910390a15b50999a9950505050505050505050565b60005b600154811015612b4a576000818152600360205260409020600701544210158015612b28575060008181526003602052604090206007015415155b15612b3857612b3681614a7b565b505b80612b4281615b79565b915050612aed565b50565b600083815260036020908152604080832081516102808101909252805460ff8082161515845285948401916101009004166006811115612b8f57612b8f6154d3565b6006811115612ba057612ba06154d3565b8152600182015460208083019190915260028301546040808401919091526003840154606084015260048401546080840152600584015460a0840152600684015460c0840152600784015460e0840152600884015461010084015260098401546001600160a01b03908116610120850152600a8501548116610140850152600b85015416610160840152600c84018054825181850281018501909352808352610180909401939192909190830182828015612c9a57602002820191906000526020600020906000905b825461010083900a900460ff161515815260206001928301818104948501949093039092029101808411612c695790505b50505050508152602001600d8201805480602002602001604051908101604052809291908181526020018280548015612cf257602002820191906000526020600020905b815481526020019060010190808311612cde575b50505050508152602001600e8201805480602002602001604051908101604052809291908181526020018280548015612d4a57602002820191906000526020600020905b815481526020019060010190808311612d36575b50505050508152602001600f8201805480602002602001604051908101604052809291908181526020018280548015612da257602002820191906000526020600020905b815481526020019060010190808311612d8e575b5050505050815260200160108201805480602002602001604051908101604052809291908181526020018280548015612e0457602002820191906000526020600020905b81546001600160a01b03168152600190910190602001808311612de6575b5050505050815260200160118201805480602002602001604051908101604052809291908181526020018280548015612e6657602002820191906000526020600020905b81546001600160a01b03168152600190910190602001808311612e48575b5050505050815260200160128201805480602002602001604051908101604052809291908181526020018280548015612ec857602002820191906000526020600020905b81546001600160a01b03168152600190910190602001808311612eaa575b505050919092525091925050506001600160a01b038416612ee857600080fd5b80511515600114612ef857600080fd5b610100810151421080612f0e5750610100810151155b612f1757600080fd5b600381602001516006811115612f2f57612f2f6154d3565b1480612f505750600481602001516006811115612f4e57612f4e6154d3565b145b80612f705750600681602001516006811115612f6e57612f6e6154d3565b145b612f7957600080fd5b60008060005b8361026001515181101561301a57866001600160a01b03168461026001518281518110612fae57612fae615b63565b60200260200101516001600160a01b03161415613008578361026001518181518110612fdc57612fdc615b63565b60200260200101519250836101c001518181518110612ffd57612ffd615b63565b602002602001015191505b8061301281615b79565b915050612f7f565b50600061302c8683866060015161030b565b9050600061303f8286606001518561030b565b905060006103e886608001516103e86130589190615c11565b6130629085615b0c565b61306c9190615b2b565b905060006103e88760a001516103e86130859190615c11565b61308f9085615b0c565b6130999190615b2b565b9050896001600160a01b0316866001600160a01b0316146130b957600080fd5b8660c001518410156130ca57600080fd5b8661012001518411156130dc57600080fd5b60008b815260036020526040812060080180548592906130fd908490615c11565b909155505060008b81526003602052604081206008015460608901516131239190615c11565b90508760e001518110613524576101608801516040516323b872dd60e01b81526001600160a01b038916916323b872dd916131649133918790600401615bcb565b6020604051808303816000875af1158015613183573d6000803e3d6000fd5b505050506040513d601f19601f820116820180604052508101906131a79190615bef565b6131b057600080fd5b8761018001516001600160a01b031663a9059cbb33856040518363ffffffff1660e01b81526004016131e3929190615c28565b6020604051808303816000875af1158015613202573d6000803e3d6000fd5b505050506040513d601f19601f820116820180604052508101906132269190615bef565b61322f57600080fd5b6001600160a01b0387166323b872dd333061324a8689615c11565b6040518463ffffffff1660e01b815260040161326893929190615bcb565b6020604051808303816000875af1158015613287573d6000803e3d6000fd5b505050506040513d601f19601f820116820180604052508101906132ab9190615bef565b6132b457600080fd5b60008060005b8a6102200151518110156134a8576103e88b608001516103e86132dd9190615c11565b8c6101e0015183815181106132f4576132f4615b63565b60200260200101516133069190615b0c565b6133109190615b2b565b92506103e88b60a001516103e86133279190615c11565b8c6102000151838151811061333e5761333e615b63565b60200260200101516133509190615b0c565b61335a9190615b2b565b91508a6102400151818151811061337357613373615b63565b60200260200101516001600160a01b031663a9059cbb8c6101600151856040518363ffffffff1660e01b81526004016133ad929190615c28565b6020604051808303816000875af11580156133cc573d6000803e3d6000fd5b505050506040513d601f19601f820116820180604052508101906133f09190615bef565b6133f957600080fd5b8a61018001516001600160a01b031663a9059cbb8c6102200151838151811061342457613424615b63565b6020026020010151846040518363ffffffff1660e01b815260040161344a929190615c28565b6020604051808303816000875af1158015613469573d6000803e3d6000fd5b505050506040513d601f19601f8201168201806040525081019061348d9190615bef565b61349657600080fd5b806134a081615b79565b9150506132ba565b5060008e81526003602052604081206134c69160109091019061545f565b60008e81526003602052604081206134e391600f9091019061545f565b60008e815260036020526040812061350091600e9091019061545f565b60008e815260036020526040812061351d9160119091019061545f565b5050613643565b6040516323b872dd60e01b81526001600160a01b038816906323b872dd9061355490339030908990600401615bcb565b6020604051808303816000875af1158015613573573d6000803e3d6000fd5b505050506040513d601f19601f820116820180604052508101906135979190615bef565b6135a057600080fd5b6102208801515180156135bb576135b8600182615c11565b90505b5060008c8152600360209081526040822060108101805460018082018355918552838520018054336001600160a01b031991821617909155600f83018054808401825590865284862001899055600e830180548084018255908652848620018a90556011909201805491820181558452919092200180549091166001600160a01b0389161790555b60008c815260036020526040902060080154612a9e5760008c81526003602081905260408220805461ffff19168155600181018390556002810183905590810182905560048101829055600581018290556006810182905560078101829055600881018290556009810180546001600160a01b0319908116909155600a8201805482169055600b82018054909116905590612a1a600c83018261543a565b600081815260036020908152604080832081516102808101909252805460ff8082161515845285948401916101009004166006811115613723576137236154d3565b6006811115613734576137346154d3565b8152600182015460208083019190915260028301546040808401919091526003840154606084015260048401546080840152600584015460a0840152600684015460c0840152600784015460e0840152600884015461010084015260098401546001600160a01b03908116610120850152600a8501548116610140850152600b85015416610160840152600c8401805482518185028101850190935280835261018090940193919290919083018282801561382e57602002820191906000526020600020906000905b825461010083900a900460ff1615158152602060019283018181049485019490930390920291018084116137fd5790505b50505050508152602001600d820180548060200260200160405190810160405280929190818152602001828054801561388657602002820191906000526020600020905b815481526020019060010190808311613872575b50505050508152602001600e82018054806020026020016040519081016040528092919081815260200182805480156138de57602002820191906000526020600020905b8154815260200190600101908083116138ca575b50505050508152602001600f820180548060200260200160405190810160405280929190818152602001828054801561393657602002820191906000526020600020905b815481526020019060010190808311613922575b505050505081526020016010820180548060200260200160405190810160405280929190818152602001828054801561399857602002820191906000526020600020905b81546001600160a01b0316815260019091019060200180831161397a575b50505050508152602001601182018054806020026020016040519081016040528092919081815260200182805480156139fa57602002820191906000526020600020905b81546001600160a01b031681526001909101906020018083116139dc575b5050505050815260200160128201805480602002602001604051908101604052809291908181526020018280548015613a5c57602002820191906000526020600020905b81546001600160a01b03168152600190910190602001808311613a3e575b5050505050815250509050806101a00151600181518110613a7f57613a7f615b63565b602002602001015115156001151514613a9757600080fd5b8061014001516001600160a01b0316336001600160a01b031614613aba57600080fd5b80511515600114613aca57600080fd5b6000816060015111613adb57600080fd5b600381602001516006811115613af357613af36154d3565b1480613b145750600481602001516006811115613b1257613b126154d3565b145b80613b345750600681602001516006811115613b3257613b326154d3565b145b15613d665760005b81610220015151811015613cd85760006001600160a01b03168261024001518281518110613b6c57613b6c615b63565b60200260200101516001600160a01b03161415613b8857600080fd5b60006001600160a01b03168261022001518281518110613baa57613baa615b63565b60200260200101516001600160a01b03161415613bc657600080fd5b8161020001518181518110613bdd57613bdd615b63565b602002602001015160001415613bf257600080fd5b8161024001518181518110613c0957613c09615b63565b60200260200101516001600160a01b031663a9059cbb8361022001518381518110613c3657613c36615b63565b60200260200101518461020001518481518110613c5557613c55615b63565b60200260200101516040518363ffffffff1660e01b8152600401613c7a929190615c28565b6020604051808303816000875af1158015613c99573d6000803e3d6000fd5b505050506040513d601f19601f82011682018060405250810190613cbd9190615bef565b613cc657600080fd5b80613cd081615b79565b915050613b3c565b508061018001516001600160a01b031663a9059cbb82610140015183606001516040518363ffffffff1660e01b8152600401613d15929190615c28565b6020604051808303816000875af1158015613d34573d6000803e3d6000fd5b505050506040513d601f19601f82011682018060405250810190613d589190615bef565b613d6157600080fd5b613def565b8061018001516001600160a01b031663a9059cbb8261014001518361012001516040518363ffffffff1660e01b8152600401613da3929190615c28565b6020604051808303816000875af1158015613dc2573d6000803e3d6000fd5b505050506040513d601f19601f82011682018060405250810190613de69190615bef565b613def57600080fd5b60008381526003602081905260408220805461ffff19168155600181018390556002810183905590810182905560048101829055600581018290556006810182905560078101829055600881018290556009810180546001600160a01b0319908116909155600a8201805482169055600b82018054909116905590613e77600c83018261543a565b613e85600d8301600061545f565b613e93600e8301600061545f565b613ea1600f8301600061545f565b613eaf60108301600061545f565b613ebd60118301600061545f565b613ecb60128301600061545f565b50507fe2dc0bfd2fc658db980184c3f7c091c2f886874e896043b562d5099c8d95b1dd833342604051613f0093929190615b94565b60405180910390a15090919050565b6000838214613f1d57600080fd5b60005b84811015613ff5576000868683818110613f3c57613f3c615b63565b9050602002016020810190613f51919061576f565b6001600160a01b03161415613f6557600080fd5b6000848483818110613f7957613f79615b63565b9050602002013511613fe35760405162461bcd60e51b815260206004820152602d60248201527f4368616e6765206f66666572205072696365206861732061207a65726f20616d60448201526c6f756e7420666f7220626f622160981b60648201526084016102f0565b80613fed81615b79565b915050613f20565b5060015486111561400557600080fd5b600086815260036020908152604080832081516102808101909252805460ff80821615158452929391929184019161010090910416600681111561404b5761404b6154d3565b600681111561405c5761405c6154d3565b8152600182015460208083019190915260028301546040808401919091526003840154606084015260048401546080840152600584015460a0840152600684015460c0840152600784015460e0840152600884015461010084015260098401546001600160a01b03908116610120850152600a8501548116610140850152600b85015416610160840152600c8401805482518185028101850190935280835261018090940193919290919083018282801561415657602002820191906000526020600020906000905b825461010083900a900460ff1615158152602060019283018181049485019490930390920291018084116141255790505b50505050508152602001600d82018054806020026020016040519081016040528092919081815260200182805480156141ae57602002820191906000526020600020905b81548152602001906001019080831161419a575b50505050508152602001600e820180548060200260200160405190810160405280929190818152602001828054801561420657602002820191906000526020600020905b8154815260200190600101908083116141f2575b50505050508152602001600f820180548060200260200160405190810160405280929190818152602001828054801561425e57602002820191906000526020600020905b81548152602001906001019080831161424a575b50505050508152602001601082018054806020026020016040519081016040528092919081815260200182805480156142c057602002820191906000526020600020905b81546001600160a01b031681526001909101906020018083116142a2575b505050505081526020016011820180548060200260200160405190810160405280929190818152602001828054801561432257602002820191906000526020600020905b81546001600160a01b03168152600190910190602001808311614304575b505050505081526020016012820180548060200260200160405190810160405280929190818152602001828054801561438457602002820191906000526020600020905b81546001600160a01b03168152600190910190602001808311614366575b5050505050815250509050806101a001516000815181106143a7576143a7615b63565b6020026020010151151560011515146143bf57600080fd5b6101408101516001600160a01b031633146143d957600080fd5b8585808060200260200160405190810160405280939291908181526020018383602002808284376000920191909152505050506102608201526040805160208086028281018201909352858252909186918691829185019084908082843760009201829052506101c08601949094525050508781526003602090815260409091208251815490151560ff198216811783559284015184939091839161ff00191661ffff1990911617610100836006811115614496576144966154d3565b021790555060408201516001820155606082015160028201556080820151600382015560a0820151600482015560c0820151600582015560e08201516006820155610100820151600782015561012082015160088201556101408201516009820180546001600160a01b039283166001600160a01b031991821617909155610160840151600a84018054918416918316919091179055610180840151600b840180549190931691161790556101a0820151805161455d91600c840191602090910190615305565b506101c0820151805161457a91600d8401916020909101906153aa565b506101e0820151805161459791600e8401916020909101906153aa565b5061020082015180516145b491600f8401916020909101906153aa565b5061022082015180516145d19160108401916020909101906153e5565b5061024082015180516145ee9160118401916020909101906153e5565b50610260820151805161460b9160128401916020909101906153e5565b50905050600080516020615c6283398151915287334260405161463093929190615b94565b60405180910390a1509495945050505050565b3361464c611606565b6001600160a01b0316146146725760405162461bcd60e51b81526004016102f090615ac1565b6001600160a01b0381166146d75760405162461bcd60e51b815260206004820152602660248201527f4f776e61626c653a206e6577206f776e657220697320746865207a65726f206160448201526564647265737360d01b60648201526084016102f0565b612b4a81614a2b565b6146e8615250565b6146f0615250565b6001546040808301919091526001600160a01b038b1661018083015280516020808b0282810182019093528a825290918b918b918291850190849080828437600092019190915250505050610260820152606081018790526040805160208088028281018201909352878252909188918891829185019084908082843760009201829052506101c086019490945250869286925090508161479357614793615b63565b6020029190910135608083015250838360018181106147b4576147b4615b63565b6020908102929092013560a0840152506101208201889052604080516000808252818401835261024085019190915281518181528084018352610220850152815181815280840183526101e085015281519081528083018252610200840152336101408401819052610160840152805160028082526060820183529092909190830190803683375050506101a0820152600181529998505050505050505050565b61485d615250565b8282600081811061487057614870615b63565b905060200201358460600151101561488757600080fd5b8282600181811061489a5761489a615b63565b905060200201356148a84290565b10806148cd5750828260018181106148c2576148c2615b63565b905060200201356000145b6148d657600080fd5b6148e58460600151848461504d565b846020019060068111156148fb576148fb6154d3565b9081600681111561490e5761490e6154d3565b905250828260008161492257614922615b63565b602002919091013560c0860152508282600281811061494357614943615b63565b905060200201356001141561497d576001846101a0015160008151811061496c5761496c615b63565b911515602092830291909101909101525b8282600381811061499057614990615b63565b90506020020135600114156149ca576001846101a001516001815181106149b9576149b9615b63565b911515602092830291909101909101525b60058214156149f957828260048181106149e6576149e6615b63565b602002919091013560e086015250614a01565b600060e08501525b82826001818110614a1457614a14615b63565b602002919091013561010086015250929392505050565b600080546001600160a01b038381166001600160a01b0319831681178455604051919092169283917f8be0079c531659141344cd1fd0a4f28419497f9722a3daafe3b4186f6b6457e09190a35050565b600081815260036020908152604080832081516102808101909252805460ff8082161515845285948401916101009004166006811115614abd57614abd6154d3565b6006811115614ace57614ace6154d3565b8152600182015460208083019190915260028301546040808401919091526003840154606084015260048401546080840152600584015460a0840152600684015460c0840152600784015460e0840152600884015461010084015260098401546001600160a01b03908116610120850152600a8501548116610140850152600b85015416610160840152600c84018054825181850281018501909352808352610180909401939192909190830182828015614bc857602002820191906000526020600020906000905b825461010083900a900460ff161515815260206001928301818104948501949093039092029101808411614b975790505b50505050508152602001600d8201805480602002602001604051908101604052809291908181526020018280548015614c2057602002820191906000526020600020905b815481526020019060010190808311614c0c575b50505050508152602001600e8201805480602002602001604051908101604052809291908181526020018280548015614c7857602002820191906000526020600020905b815481526020019060010190808311614c64575b50505050508152602001600f8201805480602002602001604051908101604052809291908181526020018280548015614cd057602002820191906000526020600020905b815481526020019060010190808311614cbc575b5050505050815260200160108201805480602002602001604051908101604052809291908181526020018280548015614d3257602002820191906000526020600020905b81546001600160a01b03168152600190910190602001808311614d14575b5050505050815260200160118201805480602002602001604051908101604052809291908181526020018280548015614d9457602002820191906000526020600020905b81546001600160a01b03168152600190910190602001808311614d76575b5050505050815260200160128201805480602002602001604051908101604052809291908181526020018280548015614df657602002820191906000526020600020905b81546001600160a01b03168152600190910190602001808311614dd8575b5050505050815250509050806101a00151600181518110614e1957614e19615b63565b6020908102919091010151614e2f575090919050565b80511515600114614e3f57600080fd5b6000816060015111614e5057600080fd5b600381602001516006811115614e6857614e686154d3565b1480614e895750600481602001516006811115614e8757614e876154d3565b145b80614ea95750600681602001516006811115614ea757614ea76154d3565b145b15613d665760005b81610220015151811015613cd85760006001600160a01b03168261024001518281518110614ee157614ee1615b63565b60200260200101516001600160a01b03161415614efd57600080fd5b60006001600160a01b03168261022001518281518110614f1f57614f1f615b63565b60200260200101516001600160a01b03161415614f3b57600080fd5b8161020001518181518110614f5257614f52615b63565b602002602001015160001415614f6757600080fd5b8161024001518181518110614f7e57614f7e615b63565b60200260200101516001600160a01b031663a9059cbb8361022001518381518110614fab57614fab615b63565b60200260200101518461020001518481518110614fca57614fca615b63565b60200260200101516040518363ffffffff1660e01b8152600401614fef929190615c28565b6020604051808303816000875af115801561500e573d6000803e3d6000fd5b505050506040513d601f19601f820116820180604052508101906150329190615bef565b61503b57600080fd5b8061504581615b79565b915050614eb1565b600080600483141561514e5760008484600181811061506e5761506e615b63565b9050602002013511801561509b575060008484600181811061509257615092615b63565b90506020020135115b80156150c0575084848460018181106150b6576150b6615b63565b9050602002013514155b156150cd57506005615248565b6000848460008181106150e2576150e2615b63565b9050602002013511801561510f5750848484600081811061510557615105615b63565b9050602002013514155b1561511c57506002615248565b60008484600181811061513157615131615b63565b90506020020135111561514657506001615248565b506000615248565b60058314156152485760008484600081811061516c5761516c615b63565b90506020020135118015615199575060008484600181811061519057615190615b63565b90506020020135115b80156151be575084848460008181106151b4576151b4615b63565b9050602002013514155b156151cb57506006615248565b6000848460008181106151e0576151e0615b63565b9050602002013511801561520d5750848484600081811061520357615203615b63565b9050602002013514155b1561521a57506003615248565b60008484600181811061522f5761522f615b63565b90506020020135111561524457506004615248565b5060035b949350505050565b604080516102808101909152600080825260208201908152602001600081526020016000815260200160008152602001600081526020016000815260200160008152602001600081526020016000815260200160006001600160a01b0316815260200160006001600160a01b0316815260200160006001600160a01b03168152602001606081526020016060815260200160608152602001606081526020016060815260200160608152602001606081525090565b82805482825590600052602060002090601f0160209004810192821561539a5791602002820160005b8382111561536b57835183826101000a81548160ff021916908315150217905550926020019260010160208160000104928301926001030261532e565b80156153985782816101000a81549060ff021916905560010160208160000104928301926001030261536b565b505b506153a6929150615479565b5090565b82805482825590600052602060002090810192821561539a579160200282015b8281111561539a5782518255916020019190600101906153ca565b82805482825590600052602060002090810192821561539a579160200282015b8281111561539a57825182546001600160a01b0319166001600160a01b03909116178255602090920191600190910190615405565b50805460008255601f016020900490600052602060002090810190612b4a9190615479565b5080546000825590600052602060002090810190612b4a91905b5b808211156153a6576000815560010161547a565b6000602082840312156154a057600080fd5b5035919050565b6000806000606084860312156154bc57600080fd5b505081359360208301359350604090920135919050565b634e487b7160e01b600052602160045260246000fd5b6007811061550757634e487b7160e01b600052602160045260246000fd5b9052565b6001600160a01b03169052565b600081518084526020808501945080840160005b8381101561554a57815115158752958201959082019060010161552c565b509495945050505050565b600081518084526020808501945080840160005b8381101561554a57815187529582019590820190600101615569565b600081518084526020808501945080840160005b8381101561554a5781516001600160a01b031687529582019590820190600101615599565b805115158252600061028060208301516155db60208601826154e9565b5060408301516040850152606083015160608501526080830151608085015260a083015160a085015260c083015160c085015260e083015160e0850152610100808401518186015250610120808401518186015250610140808401516156438287018261550b565b5050610160808401516156588287018261550b565b50506101808084015161566d8287018261550b565b50506101a080840151828287015261568783870182615518565b925050506101c080840151858303828701526156a38382615555565b925050506101e080840151858303828701526156bf8382615555565b9250505061020080840151858303828701526156db8382615555565b9250505061022080840151858303828701526156f78382615585565b9250505061024080840151858303828701526157138382615585565b92505050610260808401518583038287015261572f8382615585565b9695505050505050565b60208152600061574c60208301846155be565b9392505050565b80356001600160a01b038116811461576a57600080fd5b919050565b60006020828403121561578157600080fd5b61574c82615753565b6000602080830181845280855180835260408601915060408160051b870101925083870160005b828110156157df57603f198886030184526157cd8583516155be565b945092850192908501906001016157b1565b5092979650505050505050565b60008083601f8401126157fe57600080fd5b5081356001600160401b0381111561581557600080fd5b6020830191508360208260051b850101111561583057600080fd5b9250929050565b6000806000806000806080878903121561585057600080fd5b8635955060208701356001600160401b038082111561586e57600080fd5b61587a8a838b016157ec565b9097509550604089013591508082111561589357600080fd5b506158a089828a016157ec565b979a9699509497949695606090950135949350505050565b60008060008060008060008060008060c08b8d0312156158d757600080fd5b6158e08b615753565b995060208b01356001600160401b03808211156158fc57600080fd5b6159088e838f016157ec565b909b50995060408d0135985060608d013591508082111561592857600080fd5b6159348e838f016157ec565b909850965060808d013591508082111561594d57600080fd5b6159598e838f016157ec565b909650945060a08d013591508082111561597257600080fd5b5061597f8d828e016157ec565b915080935050809150509295989b9194979a5092959850565b8d151581526101a081016159af602083018f6154e9565b604082019c909c52606081019a909a5260808a019890985260a089019690965260c088019490945260e08701929092526101008601526101208501526001600160a01b03908116610140850152908116610160840152166101809091015292915050565b600080600060608486031215615a2857600080fd5b83359250615a3860208501615753565b9150604084013590509250925092565b600080600080600060608688031215615a6057600080fd5b8535945060208601356001600160401b0380821115615a7e57600080fd5b615a8a89838a016157ec565b90965094506040880135915080821115615aa357600080fd5b50615ab0888289016157ec565b969995985093965092949392505050565b6020808252818101527f4f776e61626c653a2063616c6c6572206973206e6f7420746865206f776e6572604082015260600190565b634e487b7160e01b600052601160045260246000fd5b6000816000190483118215151615615b2657615b26615af6565b500290565b600082615b4857634e487b7160e01b600052601260045260246000fd5b500490565b634e487b7160e01b600052604160045260246000fd5b634e487b7160e01b600052603260045260246000fd5b6000600019821415615b8d57615b8d615af6565b5060010190565b9283526001600160a01b03919091166020830152604082015260600190565b60008219821115615bc657615bc6615af6565b500190565b6001600160a01b039384168152919092166020820152604081019190915260600190565b600060208284031215615c0157600080fd5b8151801515811461574c57600080fd5b600082821015615c2357615c23615af6565b500390565b6001600160a01b0392909216825260208201526040019056feea555ab99331ceac5051c58f17cc7b411b30241b0e28cb93a7d3a24c77a7a9a9da2ee6333d385577c965da54ba64117d8cb72c553fe6284515b8244d9813cf04a2646970667358221220faf5817e5690b283dbdaad852acfb4a1b6725d72ca97660f6152b322c22091f664736f6c634300080a0033",
    "immutableReferences": {},
    "source": "// SPDX-License-Identifier: MIT\npragma solidity >=0.8.0 <0.9.0;\n\nimport \"@openzeppelin/contracts/token/ERC20/IERC20.sol\";\nimport \"@openzeppelin/contracts/access/Ownable.sol\";\n\ncontract MarsBaseExchange is Ownable {\n    uint256 nextOfferId;\n\n    uint256 minimumFee = 10;\n\n    enum OfferType {\n      FullPurchase,\n      LimitedTime,\n      ChunkedPurchase,\n      MinimumChunkedPurchase,\n      LimitedTimeMinimumPurchase,\n      LimitedTimeChunkedPurchase,\n      LimitedTimeMinimumChunkedPurchase\n    }\n\n    struct MBOffer {\n      bool active;\n      OfferType offerType;\n      uint256 offerId;\n      uint256 amountAlice;\n      uint256 feeAlice;\n      uint256 feeBob;\n      uint256 smallestChunkSize;\n      uint256 minimumSize;\n      uint256 deadline;\n      uint256 amountRemaining;\n      address offerer;\n      address payoutAddress;\n      address tokenAlice;\n      bool[] capabilities;\n      uint256[] amountBob;\n      uint256[] minimumOrderAmountsAlice;\n      uint256[] minimumOrderAmountsBob;\n      address[] minimumOrderAddresses;\n      address[] minimumOrderTokens;\n      address[] tokenBob;\n    }\n\n    event OfferCreated(uint256 offerId, address sender, uint256 blockTimestamp);\n    event OfferModified(uint256 offerId, address sender, uint256 blockTimestamp);\n    event OfferCancelled(uint256 offerId, address sender, uint256 blockTimestamp);\n    event OfferAccepted(uint256 offerId, address sender, uint256 blockTimestamp);\n    event OfferPartiallyAccepted(uint256 offerId, address sender, uint256 blockTimestamp);\n\n    // For testing usage\n    event Log(uint256 log);\n\n    mapping (uint256 => MBOffer) public offers;\n\n    function getTime() virtual internal view returns (uint256) {\n      return block.timestamp;\n    }\n\n    function setCurrentTime() public {\n      for (uint256 index = 0; index < nextOfferId; index++) {\n        if (getTime() >= offers[index].deadline && offers[index].deadline != 0) {\n          cancelExpiredOffer(index);\n        }\n      }\n    }\n\n    function setMinimumFee(uint256 _minimumFee) public onlyOwner {\n      require(_minimumFee > 0);\n\n      minimumFee = _minimumFee;\n    }\n\n    function getOffer(uint256 offerId) public view returns (MBOffer memory) {\n      return offers[offerId];\n    }\n\n    function getAllOffers() public view returns (MBOffer[] memory) {\n      MBOffer[] memory openOffers = new MBOffer[](nextOfferId);\n      uint256 counter = 0;\n\n      for (uint256 index = 0; index < nextOfferId; index++) {\n        if (offers[index].active == true) {\n          openOffers[counter] = offers[index];\n          counter++;\n        }\n      }\n\n      return openOffers;\n    }\n\n\n    function getOpenOffersForAddress(address offerer) public view returns (MBOffer[] memory) {\n      MBOffer[] memory openOffers = new MBOffer[](nextOfferId);\n      uint256 counter = 0;\n\n      for (uint256 index = 0; index < nextOfferId; index++) {\n        if (offers[index].active == true && offers[index].offerer == offerer) {\n          openOffers[counter] = offers[index];\n          counter++;\n        }\n      }\n\n      return openOffers;\n    }\n\n    function price(uint256 amountAlice, uint256 offerAmountAlice, uint256 offerAmountBob) public pure returns (uint256) {\n      uint256 numerator = amountAlice * offerAmountBob;\n      uint256 denominator = offerAmountAlice;\n      uint256 finalPrice = numerator / denominator;\n      return finalPrice;\n    }\n\n    function createOffer(address tokenAlice, address[] calldata tokenBob, uint256 amountAlice, uint256[] calldata amountBob, uint256[] calldata fees, uint256[] calldata offerParameters) public returns (uint256) {\n      uint256 feeAlice = fees[0];\n      uint256 feeBob = fees[1];\n      \n      require(tokenAlice != address(0));\n      for (uint256 index = 0; index < tokenBob.length; index++) {\n        require(tokenBob[index] != address(0));\n      }\n\n      require(feeAlice + feeBob >= minimumFee);\n      \n      MBOffer memory offer = initOffer(tokenAlice, tokenBob, amountAlice, amountBob, fees);\n      offer = setOfferProperties(offer, offerParameters);\n\n      uint256 offerId = nextOfferId;\n      offers[offerId] = offer;\n\n      require(IERC20(offer.tokenAlice).transferFrom(msg.sender, address(this), amountAlice));\n\n      nextOfferId ++;\n\n      emit OfferCreated(offerId, msg.sender, block.timestamp);\n\n      return offerId;\n    }\n\n    function setOfferProperties (MBOffer memory offer, uint256[] calldata offerParameters) private view returns (MBOffer memory) {\n      require(offer.amountAlice >= offerParameters[0]);\n      require(getTime() < offerParameters[1] || offerParameters[1] == 0);\n\n      offer.offerType = getOfferType(offer.amountAlice, offerParameters);\n\n      offer.smallestChunkSize = offerParameters[0];\n\n      if (offerParameters[2] == 1) {\n        offer.capabilities[0] = true;\n      }\n\n      if (offerParameters[3] == 1) {\n        offer.capabilities[1] = true;\n      }\n\n      if (offerParameters.length == 5) {\n        offer.minimumSize = offerParameters[4];\n      } else {\n        offer.minimumSize = 0;\n      }\n\n      offer.deadline = offerParameters[1];\n\n      return offer;\n    }\n\n    function getOfferType (uint256 amountAlice, uint256[] calldata offerParameters) private pure returns (OfferType) {\n      OfferType offerType;\n\n      if (offerParameters.length == 4) {\n        if (offerParameters[1] > 0 && offerParameters[1] > 0 && offerParameters[1] != amountAlice) {\n          offerType = OfferType.LimitedTimeChunkedPurchase;\n        } else if (offerParameters[0] > 0 && offerParameters[0] != amountAlice) {\n          offerType = OfferType.ChunkedPurchase;\n        } else if (offerParameters[1] > 0) {\n          offerType = OfferType.LimitedTime;\n        } else {\n          offerType = OfferType.FullPurchase;\n        }\n      } else if (offerParameters.length == 5) {\n        if (offerParameters[0] > 0 && offerParameters[1] > 0 && offerParameters[0] != amountAlice) {\n          offerType = OfferType.LimitedTimeMinimumChunkedPurchase;\n        } else if (offerParameters[0] > 0 && offerParameters[0] != amountAlice) {\n          offerType = OfferType.MinimumChunkedPurchase;\n        } else if (offerParameters[1] > 0) {\n          offerType = OfferType.LimitedTimeMinimumPurchase;\n        } else {\n          offerType = OfferType.MinimumChunkedPurchase;\n        }\n      }\n\n      return offerType;\n    }\n\n    function initOffer(address tokenAlice, address[] calldata tokenBob, uint256 amountAlice, uint256[] calldata amountBob, uint256[] calldata fees) private view returns (MBOffer memory) {\n      \n      MBOffer memory offer;\n\n      offer.offerId = nextOfferId;\n\n      offer.tokenAlice = tokenAlice;\n      offer.tokenBob = tokenBob;\n\n      offer.amountAlice = amountAlice;\n      offer.amountBob = amountBob;\n\n      offer.feeAlice = fees[0];\n      offer.feeBob = fees[1];\n\n      offer.amountRemaining = amountAlice;\n\n      offer.minimumOrderTokens = new address[](0);\n      offer.minimumOrderAddresses = new address[](0);\n      offer.minimumOrderAmountsAlice = new uint256[](0);\n      offer.minimumOrderAmountsBob = new uint256[](0);\n      \n      offer.offerer = msg.sender;\n      offer.payoutAddress = msg.sender;\n      offer.capabilities = new bool[](2);\n\n      offer.active = true;\n\n      return offer;\n    }\n\n    function cancelExpiredOffer(uint256 offerId) private returns (uint256) {\n      MBOffer memory offer = offers[offerId];\n\n      if (offer.capabilities[1] == false) {\n        return offerId;\n      }\n\n      require(offer.active == true);\n      require(offer.amountAlice > 0);\n\n      if (offer.offerType == OfferType.MinimumChunkedPurchase || \n        offer.offerType == OfferType.LimitedTimeMinimumPurchase || \n        offer.offerType == OfferType.LimitedTimeMinimumChunkedPurchase) \n      {\n        for (uint256 index = 0; index < offer.minimumOrderAddresses.length; index++) {\n          require(offer.minimumOrderTokens[index] != address(0));\n          require(offer.minimumOrderAddresses[index] != address(0));\n          require(offer.minimumOrderAmountsBob[index] != 0);\n          \n          require(IERC20(offer.minimumOrderTokens[index]).transfer(offer.minimumOrderAddresses[index], offer.minimumOrderAmountsBob[index]));\n        }\n\n        require(IERC20(offer.tokenAlice).transfer(offer.offerer, offer.amountAlice));\n      } else {\n        require(IERC20(offer.tokenAlice).transfer(offer.offerer, offer.amountRemaining));\n      }\n\n      delete offers[offerId];\n\n      emit OfferCancelled(offerId, msg.sender, block.timestamp);\n\n      return offerId;\n    }\n\n    function cancelOffer(uint256 offerId) public returns (uint256) {\n      MBOffer memory offer = offers[offerId];\n\n      require(offer.capabilities[1] == true);\n      require(msg.sender == offer.offerer);\n      require(offer.active == true);\n      require(offer.amountAlice > 0);\n\n      if (offer.offerType == OfferType.MinimumChunkedPurchase || \n        offer.offerType == OfferType.LimitedTimeMinimumPurchase || \n        offer.offerType == OfferType.LimitedTimeMinimumChunkedPurchase) \n      {\n        for (uint256 index = 0; index < offer.minimumOrderAddresses.length; index++) {\n          require(offer.minimumOrderTokens[index] != address(0));\n          require(offer.minimumOrderAddresses[index] != address(0));\n          require(offer.minimumOrderAmountsBob[index] != 0);\n          \n          require(IERC20(offer.minimumOrderTokens[index]).transfer(offer.minimumOrderAddresses[index], offer.minimumOrderAmountsBob[index]));\n        }\n\n        require(IERC20(offer.tokenAlice).transfer(offer.offerer, offer.amountAlice));\n      } else {\n        require(IERC20(offer.tokenAlice).transfer(offer.offerer, offer.amountRemaining));\n      }\n\n      delete offers[offerId];\n\n      emit OfferCancelled(offerId, msg.sender, block.timestamp);\n\n      return offerId;\n    }\n\n    function changeOfferPrice(uint256 offerId, address[] calldata tokenBob, uint256[] calldata amountBob) public returns (uint256) {\n      require(tokenBob.length == amountBob.length);\n\n      for (uint256 index = 0; index < tokenBob.length; index++) {\n        require(tokenBob[index] != address(0));\n        require(amountBob[index] > 0,\"Change offer Price has a zero amount for bob!\");\n      }\n\n      require(offerId <= nextOfferId);\n\n      MBOffer memory offer = offers[offerId];\n      require(offer.capabilities[0] == true);\n\n      require(offer.offerer == msg.sender);\n\n      offer.tokenBob = tokenBob;\n      offer.amountBob = amountBob;\n\n      offers[offerId] = offer;\n\n      emit OfferModified(offerId, msg.sender, block.timestamp);\n\n      return offerId;\n\n    }\n\n    function changeOfferPricePart(uint256 offerId, address[] calldata tokenBob, uint256[] calldata amountBob, uint256 smallestChunkSize) public returns (uint256) {\n      require(tokenBob.length == amountBob.length);\n\n      for (uint256 index = 0; index < tokenBob.length; index++) {\n        require(tokenBob[index] != address(0));\n        require(amountBob[index] > 0);\n      }\n\n      require(offerId <= nextOfferId);\n\n      MBOffer memory offer = offers[offerId];\n\n      require(offer.capabilities[0] == true);\n\n      require(offer.offerer == msg.sender);\n      require(smallestChunkSize <= offer.amountAlice);\n\n      offer.tokenBob = tokenBob;\n      offer.amountBob = amountBob;\n      offer.smallestChunkSize = smallestChunkSize;\n\n      offers[offerId] = offer;\n\n      emit OfferModified(offerId, msg.sender, block.timestamp);\n\n      return offerId;\n    }\n\n    function acceptOffer(uint256 offerId, address tokenBob, uint256 amountBob) public returns (uint256) {\n      MBOffer memory offer = offers[offerId];\n\n      require(tokenBob != address(0));\n      require(offer.active == true);\n      require(getTime() < offer.deadline || offer.deadline == 0);\n\n      address acceptedTokenBob = address(0);\n      uint256 acceptedAmountBob = 0;\n      for (uint256 index = 0; index < offer.tokenBob.length; index++) {\n        if (offer.tokenBob[index] == tokenBob && offer.amountBob[index] == amountBob) {\n          acceptedTokenBob = offer.tokenBob[index];\n          acceptedAmountBob = offer.amountBob[index];\n        }\n      }\n\n      require(acceptedTokenBob == tokenBob);\n      require(acceptedAmountBob == amountBob);\n\n      uint256 amountAfterFeeAlice = offer.amountRemaining * (1000-offer.feeAlice) / 1000;\n      uint256 amountAfterFeeBob = acceptedAmountBob * (1000-offer.feeBob) / 1000;\n      uint256 amountFeeDex = acceptedAmountBob - amountAfterFeeBob;\n      require(amountFeeDex > 0);\n\n      require(IERC20(acceptedTokenBob).transferFrom(msg.sender, offer.payoutAddress, amountAfterFeeBob));\n      require(IERC20(offer.tokenAlice).transfer(msg.sender, amountAfterFeeAlice));\n      require(IERC20(acceptedTokenBob).transferFrom(msg.sender, address(this), amountFeeDex));\n      \n      delete offers[offerId];\n\n      emit OfferAccepted(offerId, msg.sender, block.timestamp);\n\n      return offerId;\n    }\n\n    function acceptOfferPart(uint256 offerId, address tokenBob, uint256 amountBob) public returns (uint256) {\n      MBOffer memory offer = offers[offerId];\n\n      require(tokenBob != address(0));\n      require(offer.active == true);\n      require(getTime() < offer.deadline || offer.deadline == 0);\n      require(offer.offerType == OfferType.ChunkedPurchase || \n        offer.offerType == OfferType.LimitedTimeChunkedPurchase || \n        offer.offerType == OfferType.LimitedTimeMinimumChunkedPurchase || \n        offer.offerType == OfferType.MinimumChunkedPurchase);\n\n      address acceptedTokenBob = address(0);\n      uint256 acceptedAmountBob = 0;\n      for (uint256 index = 0; index < offer.tokenBob.length; index++) {\n        if (offer.tokenBob[index] == tokenBob) {\n          acceptedTokenBob = offer.tokenBob[index];\n          acceptedAmountBob = offer.amountBob[index];\n        }\n      }\n\n      uint256 partialAmountAlice = price(amountBob, acceptedAmountBob, offer.amountAlice);\n      uint256 partialAmountBob = price(partialAmountAlice, offer.amountAlice, acceptedAmountBob);\n\n      uint256 amountAfterFeeAlice = partialAmountAlice * (1000-offer.feeAlice) / 1000;\n      uint256 amountAfterFeeBob = partialAmountBob * (1000-offer.feeBob) / 1000;\n      uint256 amountFeeDex = partialAmountBob - amountAfterFeeBob;\n\n      require(amountAfterFeeBob >= 0);\n      require(amountFeeDex > 0);\n\n      require(amountAfterFeeAlice >= offer.smallestChunkSize);\n      require(amountAfterFeeAlice <= offer.amountRemaining);\n\n      require(IERC20(acceptedTokenBob).transferFrom(msg.sender, offer.payoutAddress, amountAfterFeeBob));\n      require(IERC20(acceptedTokenBob).transferFrom(msg.sender, address(this), amountFeeDex));\n      require(IERC20(offer.tokenAlice).transfer(msg.sender, amountAfterFeeAlice));\n\n      offers[offerId].amountRemaining -= partialAmountAlice;\n\n      if (offers[offerId].amountRemaining == 0) {\n        delete offers[offerId];\n\n        emit OfferAccepted(offerId, msg.sender, block.timestamp);\n      } else {\n        emit OfferPartiallyAccepted(offerId, msg.sender, block.timestamp);\n      }\n\n      return offerId;\n    }\n\n    function acceptOfferPartWithMinimum(uint256 offerId, address tokenBob, uint256 amountBob) public returns (uint256) {\n      MBOffer memory offer = offers[offerId];\n\n      require(tokenBob != address(0));\n      require(offer.active == true);\n      require(getTime() < offer.deadline || offer.deadline == 0);\n      require(offer.offerType == OfferType.MinimumChunkedPurchase || \n        offer.offerType == OfferType.LimitedTimeMinimumPurchase || \n        offer.offerType == OfferType.LimitedTimeMinimumChunkedPurchase);\n\n      address acceptedTokenBob = address(0);\n      uint256 acceptedAmountBob = 0;\n      for (uint256 index = 0; index < offer.tokenBob.length; index++) {\n        if (offer.tokenBob[index] == tokenBob) {\n          acceptedTokenBob = offer.tokenBob[index];\n          acceptedAmountBob = offer.amountBob[index];\n        }\n      }\n\n      uint256 partialAmountAlice = price(amountBob, acceptedAmountBob, offer.amountAlice);\n      uint256 partialAmountBob = price(partialAmountAlice, offer.amountAlice, acceptedAmountBob);\n\n      uint256 amountAfterFeeAlice = partialAmountAlice * (1000-offer.feeAlice) / 1000;\n      uint256 amountAfterFeeBob = partialAmountBob * (1000-offer.feeBob) / 1000;\n\n      require(acceptedTokenBob == tokenBob);\n\n      require(partialAmountBob >= 0);\n\n      require(partialAmountAlice >= offer.smallestChunkSize);\n      require(partialAmountAlice <= offer.amountRemaining);\n      \n      offers[offerId].amountRemaining -= partialAmountBob;\n\n      uint256 tokensSold = offer.amountAlice - offers[offerId].amountRemaining;\n\n      if (tokensSold >= offer.minimumSize) {\n        require(IERC20(acceptedTokenBob).transferFrom(msg.sender, offer.payoutAddress, amountAfterFeeBob));\n        require(IERC20(offer.tokenAlice).transfer(msg.sender, amountAfterFeeAlice));\n        require(IERC20(acceptedTokenBob).transferFrom(msg.sender, address(this), partialAmountBob - amountAfterFeeBob));\n        \n        uint256 acceptedAmountAfterFeeAlice;\n        uint256 acceptedAmountAfterFeeBob;\n        for (uint256 index = 0; index < offer.minimumOrderAddresses.length; index++) {\n          acceptedAmountAfterFeeAlice = offer.minimumOrderAmountsAlice[index] * (1000-offer.feeAlice) / 1000;\n          acceptedAmountAfterFeeBob = offer.minimumOrderAmountsBob[index] * (1000-offer.feeBob) / 1000;\n          require(IERC20(offer.minimumOrderTokens[index]).transfer(offer.payoutAddress, acceptedAmountAfterFeeAlice));\n          require(IERC20(offer.tokenAlice).transfer(offer.minimumOrderAddresses[index], acceptedAmountAfterFeeBob));\n        }\n\n        delete offers[offerId].minimumOrderAddresses;\n        delete offers[offerId].minimumOrderAmountsBob;\n        delete offers[offerId].minimumOrderAmountsAlice;\n        delete offers[offerId].minimumOrderTokens;\n\n      } else {\n        require(IERC20(acceptedTokenBob).transferFrom(msg.sender, address(this), partialAmountBob));\n\n        uint256 chunkAlicedex = offer.minimumOrderAddresses.length;\n\n        if (chunkAlicedex > 0) {\n          chunkAlicedex -= 1;\n        }\n\n        offers[offerId].minimumOrderAddresses.push(msg.sender);\n        offers[offerId].minimumOrderAmountsBob.push(partialAmountBob);\n        offers[offerId].minimumOrderAmountsAlice.push(partialAmountAlice);\n        offers[offerId].minimumOrderTokens.push(acceptedTokenBob);\n      }\n\n      if (offers[offerId].amountRemaining == 0) {\n        delete offers[offerId];\n\n        emit OfferAccepted(offerId, msg.sender, block.timestamp);\n      } else {\n        emit OfferPartiallyAccepted(offerId, msg.sender, block.timestamp);\n      }\n\n      return offerId;\n    }\n\n}\n",
    "sourcePath": "/home/someone/code/contracts-v2/contracts/MarsBaseExchange.sol",
    "compiler": {
        "name": "solc",
        "version": "0.8.10+commit.fc410830.Emscripten.clang"
    },
    "schemaVersion": "3.4.3",
    "updatedAt": "2022-01-06T06:32:04.247Z",
    "networkType": "ethereum",
    "devdoc": {
        "kind": "dev",
        "methods": {
            "owner()": {
                "details": "Returns the address of the current owner."
            },
            "renounceOwnership()": {
                "details": "Leaves the contract without owner. It will not be possible to call `onlyOwner` functions anymore. Can only be called by the current owner. NOTE: Renouncing ownership will leave the contract without an owner, thereby removing any functionality that is only available to the owner."
            },
            "transferOwnership(address)": {
                "details": "Transfers ownership of the contract to a new account (`newOwner`). Can only be called by the current owner."
            }
        },
        "version": 1
    },
    "userdoc": {
        "kind": "user",
        "methods": {},
        "version": 1
    }
}